{
  "_format": "hh-sol-artifact-1",
  "contractName": "Icons",
  "sourceName": "contracts/Icons.sol",
  "abi": [
    {
      "inputs": [
        {
          "internalType": "uint256",
          "name": "mintFeePerToken_",
          "type": "uint256"
        },
        {
          "internalType": "uint256",
          "name": "maxTokens_",
          "type": "uint256"
        },
        {
          "internalType": "string",
          "name": "uri_",
          "type": "string"
        },
        {
          "internalType": "uint256",
          "name": "earlyMintEnd_",
          "type": "uint256"
        },
        {
          "internalType": "address",
          "name": "oracle_",
          "type": "address"
        },
        {
          "internalType": "bytes32",
          "name": "jobId_",
          "type": "bytes32"
        },
        {
          "internalType": "uint256",
          "name": "linkFee_",
          "type": "uint256"
        },
        {
          "internalType": "bytes32",
          "name": "apiUrl_",
          "type": "bytes32"
        },
        {
          "internalType": "address",
          "name": "linkAddress_",
          "type": "address"
        }
      ],
      "stateMutability": "nonpayable",
      "type": "constructor"
    },
    {
      "anonymous": false,
      "inputs": [
        {
          "indexed": true,
          "internalType": "address",
          "name": "account",
          "type": "address"
        },
        {
          "indexed": true,
          "internalType": "address",
          "name": "operator",
          "type": "address"
        },
        {
          "indexed": false,
          "internalType": "bool",
          "name": "approved",
          "type": "bool"
        }
      ],
      "name": "ApprovalForAll",
      "type": "event"
    },
    {
      "anonymous": false,
      "inputs": [
        {
          "indexed": true,
          "internalType": "bytes32",
          "name": "id",
          "type": "bytes32"
        }
      ],
      "name": "ChainlinkCancelled",
      "type": "event"
    },
    {
      "anonymous": false,
      "inputs": [
        {
          "indexed": true,
          "internalType": "bytes32",
          "name": "id",
          "type": "bytes32"
        }
      ],
      "name": "ChainlinkFulfilled",
      "type": "event"
    },
    {
      "anonymous": false,
      "inputs": [
        {
          "indexed": true,
          "internalType": "bytes32",
          "name": "id",
          "type": "bytes32"
        }
      ],
      "name": "ChainlinkRequested",
      "type": "event"
    },
    {
      "anonymous": false,
      "inputs": [
        {
          "indexed": true,
          "internalType": "address",
          "name": "previousOwner",
          "type": "address"
        },
        {
          "indexed": true,
          "internalType": "address",
          "name": "newOwner",
          "type": "address"
        }
      ],
      "name": "OwnershipTransferred",
      "type": "event"
    },
    {
      "anonymous": false,
      "inputs": [
        {
          "indexed": true,
          "internalType": "address",
          "name": "operator",
          "type": "address"
        },
        {
          "indexed": true,
          "internalType": "address",
          "name": "from",
          "type": "address"
        },
        {
          "indexed": true,
          "internalType": "address",
          "name": "to",
          "type": "address"
        },
        {
          "indexed": false,
          "internalType": "uint256[]",
          "name": "ids",
          "type": "uint256[]"
        },
        {
          "indexed": false,
          "internalType": "uint256[]",
          "name": "values",
          "type": "uint256[]"
        }
      ],
      "name": "TransferBatch",
      "type": "event"
    },
    {
      "anonymous": false,
      "inputs": [
        {
          "indexed": true,
          "internalType": "address",
          "name": "operator",
          "type": "address"
        },
        {
          "indexed": true,
          "internalType": "address",
          "name": "from",
          "type": "address"
        },
        {
          "indexed": true,
          "internalType": "address",
          "name": "to",
          "type": "address"
        },
        {
          "indexed": false,
          "internalType": "uint256",
          "name": "id",
          "type": "uint256"
        },
        {
          "indexed": false,
          "internalType": "uint256",
          "name": "value",
          "type": "uint256"
        }
      ],
      "name": "TransferSingle",
      "type": "event"
    },
    {
      "anonymous": false,
      "inputs": [
        {
          "indexed": false,
          "internalType": "string",
          "name": "value",
          "type": "string"
        },
        {
          "indexed": true,
          "internalType": "uint256",
          "name": "id",
          "type": "uint256"
        }
      ],
      "name": "URI",
      "type": "event"
    },
    {
      "inputs": [
        {
          "internalType": "address",
          "name": "account",
          "type": "address"
        },
        {
          "internalType": "uint256",
          "name": "id",
          "type": "uint256"
        }
      ],
      "name": "balanceOf",
      "outputs": [
        {
          "internalType": "uint256",
          "name": "",
          "type": "uint256"
        }
      ],
      "stateMutability": "view",
      "type": "function"
    },
    {
      "inputs": [
        {
          "internalType": "address[]",
          "name": "accounts",
          "type": "address[]"
        },
        {
          "internalType": "uint256[]",
          "name": "ids",
          "type": "uint256[]"
        }
      ],
      "name": "balanceOfBatch",
      "outputs": [
        {
          "internalType": "uint256[]",
          "name": "",
          "type": "uint256[]"
        }
      ],
      "stateMutability": "view",
      "type": "function"
    },
    {
      "inputs": [
        {
          "internalType": "uint256",
          "name": "_amount",
          "type": "uint256"
        }
      ],
      "name": "earlyMint",
      "outputs": [],
      "stateMutability": "payable",
      "type": "function"
    },
    {
      "inputs": [
        {
          "internalType": "address",
          "name": "_address",
          "type": "address"
        },
        {
          "internalType": "uint256",
          "name": "_amount",
          "type": "uint256"
        }
      ],
      "name": "earlyMintList",
      "outputs": [],
      "stateMutability": "nonpayable",
      "type": "function"
    },
    {
      "inputs": [
        {
          "internalType": "bytes32",
          "name": "_requestId",
          "type": "bytes32"
        },
        {
          "internalType": "string",
          "name": "_uri",
          "type": "string"
        }
      ],
      "name": "fulfill",
      "outputs": [],
      "stateMutability": "nonpayable",
      "type": "function"
    },
    {
      "inputs": [
        {
          "internalType": "address",
          "name": "account",
          "type": "address"
        },
        {
          "internalType": "address",
          "name": "operator",
          "type": "address"
        }
      ],
      "name": "isApprovedForAll",
      "outputs": [
        {
          "internalType": "bool",
          "name": "",
          "type": "bool"
        }
      ],
      "stateMutability": "view",
      "type": "function"
    },
    {
      "inputs": [
        {
          "internalType": "uint256",
          "name": "_amount",
          "type": "uint256"
        }
      ],
      "name": "mint",
      "outputs": [],
      "stateMutability": "payable",
      "type": "function"
    },
    {
      "inputs": [],
      "name": "mintFee",
      "outputs": [
        {
          "internalType": "uint256",
          "name": "",
          "type": "uint256"
        }
      ],
      "stateMutability": "nonpayable",
      "type": "function"
    },
    {
      "inputs": [],
      "name": "owner",
      "outputs": [
        {
          "internalType": "address",
          "name": "",
          "type": "address"
        }
      ],
      "stateMutability": "view",
      "type": "function"
    },
    {
      "inputs": [],
      "name": "renounceOwnership",
      "outputs": [],
      "stateMutability": "nonpayable",
      "type": "function"
    },
    {
      "inputs": [
        {
          "internalType": "address",
          "name": "from",
          "type": "address"
        },
        {
          "internalType": "address",
          "name": "to",
          "type": "address"
        },
        {
          "internalType": "uint256[]",
          "name": "ids",
          "type": "uint256[]"
        },
        {
          "internalType": "uint256[]",
          "name": "amounts",
          "type": "uint256[]"
        },
        {
          "internalType": "bytes",
          "name": "data",
          "type": "bytes"
        }
      ],
      "name": "safeBatchTransferFrom",
      "outputs": [],
      "stateMutability": "nonpayable",
      "type": "function"
    },
    {
      "inputs": [
        {
          "internalType": "address",
          "name": "from",
          "type": "address"
        },
        {
          "internalType": "address",
          "name": "to",
          "type": "address"
        },
        {
          "internalType": "uint256",
          "name": "id",
          "type": "uint256"
        },
        {
          "internalType": "uint256",
          "name": "amount",
          "type": "uint256"
        },
        {
          "internalType": "bytes",
          "name": "data",
          "type": "bytes"
        }
      ],
      "name": "safeTransferFrom",
      "outputs": [],
      "stateMutability": "nonpayable",
      "type": "function"
    },
    {
      "inputs": [
        {
          "internalType": "address",
          "name": "operator",
          "type": "address"
        },
        {
          "internalType": "bool",
          "name": "approved",
          "type": "bool"
        }
      ],
      "name": "setApprovalForAll",
      "outputs": [],
      "stateMutability": "nonpayable",
      "type": "function"
    },
    {
      "inputs": [
        {
          "internalType": "uint256",
          "name": "fee_",
          "type": "uint256"
        }
      ],
      "name": "setMintFeePerToken",
      "outputs": [],
      "stateMutability": "nonpayable",
      "type": "function"
    },
    {
      "inputs": [
        {
          "internalType": "bytes4",
          "name": "interfaceId",
          "type": "bytes4"
        }
      ],
      "name": "supportsInterface",
      "outputs": [
        {
          "internalType": "bool",
          "name": "",
          "type": "bool"
        }
      ],
      "stateMutability": "view",
      "type": "function"
    },
    {
      "inputs": [
        {
          "internalType": "address",
          "name": "newOwner",
          "type": "address"
        }
      ],
      "name": "transferOwnership",
      "outputs": [],
      "stateMutability": "nonpayable",
      "type": "function"
    },
    {
      "inputs": [
        {
          "internalType": "uint256",
          "name": "",
          "type": "uint256"
        }
      ],
      "name": "uri",
      "outputs": [
        {
          "internalType": "string",
          "name": "",
          "type": "string"
        }
      ],
      "stateMutability": "view",
      "type": "function"
    },
    {
      "inputs": [],
      "name": "withdraw",
      "outputs": [],
      "stateMutability": "nonpayable",
      "type": "function"
    },
    {
      "inputs": [],
      "name": "withdrawLink",
      "outputs": [],
      "stateMutability": "nonpayable",
      "type": "function"
    }
  ],
  "bytecode": "0x60a060405260016008553480156200001657600080fd5b5060405162003598380380620035988339810160408190526200003991620001ea565b866200004e62000048620000ba565b620000be565b62000059816200010e565b50608097909752600f979097556012939093556000601055600a80546001600160a01b039384166001600160a01b031991821617909155600b91909155600c92909255600d94909455600e8054939094169216919091179091555062000372565b3390565b600080546001600160a01b038381166001600160a01b0319831681178455604051919092169283917f8be0079c531659141344cd1fd0a4f28419497f9722a3daafe3b4186f6b6457e09190a35050565b80516200012390600390602084019062000127565b5050565b82805462000135906200031f565b90600052602060002090601f016020900481019282620001595760008555620001a4565b82601f106200017457805160ff1916838001178555620001a4565b82800160010185558215620001a4579182015b82811115620001a457825182559160200191906001019062000187565b50620001b2929150620001b6565b5090565b5b80821115620001b25760008155600101620001b7565b80516001600160a01b0381168114620001e557600080fd5b919050565b60008060008060008060008060006101208a8c03121562000209578485fd5b89516020808c015160408d0151929b509950906001600160401b038082111562000231578788fd5b818d0191508d601f83011262000245578788fd5b8151818111156200025a576200025a6200035c565b604051601f8201601f19168101850183811182821017156200028057620002806200035c565b80604052508181528f858386010111156200029957898afd5b8992505b81831015620002bc57838301850151818401860152918401916200029d565b81831115620002cd57898583830101525b809b50505050505060608a01519550620002ea60808b01620001cd565b945060a08a0151935060c08a0151925060e08a01519150620003106101008b01620001cd565b90509295985092959850929598565b6002810460018216806200033457607f821691505b602082108114156200035657634e487b7160e01b600052602260045260246000fd5b50919050565b634e487b7160e01b600052604160045260246000fd5b60805161320362000395600039600081816108ab0152610b2001526132036000f3fe6080604052600436106101135760003560e01c80638a61413c116100a0578063a47d5dba11610064578063a47d5dba146102d3578063e985e9c5146102f3578063ec45597314610313578063f242432a14610333578063f2fde38b1461035357610113565b80638a61413c146102565780638da5cb5b146102695780638dc654a21461028b578063a0712d68146102a0578063a22cb465146102b357610113565b80632eb2c2d6116100e75780632eb2c2d6146101bd57806337441996146101df5780633ccfd60b146101ff5780634e1273f414610214578063715018a61461024157610113565b8062fdd58e1461011857806301ffc9a71461014e5780630e89341c1461017b57806313966db5146101a8575b600080fd5b34801561012457600080fd5b5061013861013336600461238d565b610373565b6040516101459190612e7e565b60405180910390f35b34801561015a57600080fd5b5061016e6101693660046124dc565b6103cf565b6040516101459190612777565b34801561018757600080fd5b5061019b610196366004612514565b610417565b6040516101459190612782565b3480156101b457600080fd5b506101386104ab565b3480156101c957600080fd5b506101dd6101d8366004612250565b6104b2565b005b3480156101eb57600080fd5b506101dd6101fa36600461248f565b610510565b34801561020b57600080fd5b506101dd6106ba565b34801561022057600080fd5b5061023461022f3660046123b6565b61073e565b604051610145919061273f565b34801561024d57600080fd5b506101dd61085d565b6101dd610264366004612514565b6108a8565b34801561027557600080fd5b5061027e6109c2565b60405161014591906125e0565b34801561029757600080fd5b506101dd6109d1565b6101dd6102ae366004612514565b610b1d565b3480156102bf57600080fd5b506101dd6102ce366004612357565b610be3565b3480156102df57600080fd5b506101dd6102ee366004612514565b610cb1565b3480156102ff57600080fd5b5061016e61030e36600461221e565b610cf5565b34801561031f57600080fd5b506101dd61032e36600461238d565b610d23565b34801561033f57600080fd5b506101dd61034e3660046122f5565b610d7e565b34801561035f57600080fd5b506101dd61036e366004612204565b610dd5565b60006001600160a01b0383166103a45760405162461bcd60e51b815260040161039b90612831565b60405180910390fd5b5060008181526001602090815260408083206001600160a01b03861684529091529020545b92915050565b60006001600160e01b03198216636cdb3d1360e11b148061040057506001600160e01b031982166303a24d0760e21b145b8061040f575061040f82610e46565b90505b919050565b60606003805461042690613043565b80601f016020809104026020016040519081016040528092919081815260200182805461045290613043565b801561049f5780601f106104745761010080835404028352916020019161049f565b820191906000526020600020905b81548152906001019060200180831161048257829003601f168201915b50505050509050919050565b600f545b90565b6104ba610e5f565b6001600160a01b0316856001600160a01b031614806104e057506104e08561030e610e5f565b6104fc5760405162461bcd60e51b815260040161039b90612a94565b6105098585858585610e63565b5050505050565b60008281526009602052604090205482906001600160a01b031633146105485760405162461bcd60e51b815260040161039b90612c22565b60008181526009602052604080822080546001600160a01b03191690555182917f7cc135e0cebb02c3480ae5d74d377283180a2601f8f644edf7987b009316c63a91a2600083815260136020908152604091829020825160808101845281548152600182015492810192909252600201546001600160a01b03811692820192909252600160a01b90910460ff1615801560608301526105f95760405162461bcd60e51b815260040161039b90612e30565b6000610627604051806040016040528060018152602001600160fd1b8152508561103790919063ffffffff16565b905060005b82602001518110156106915761067f83604001518285600001516106509190612ee1565b600185858151811061067257634e487b7160e01b600052603260045260246000fd5b6020026020010151611270565b8061068981613078565b91505061062c565b50505060009283525050601360205260409020600201805460ff60a01b1916600160a01b179055565b6106c2610e5f565b6001600160a01b03166106d36109c2565b6001600160a01b0316146106f95760405162461bcd60e51b815260040161039b90612b30565b47610702610e5f565b6001600160a01b03166108fc829081150290604051600060405180830381858888f1935050505015801561073a573d6000803e3d6000fd5b5050565b606081518351146107615760405162461bcd60e51b815260040161039b90612d10565b600083516001600160401b0381111561078a57634e487b7160e01b600052604160045260246000fd5b6040519080825280602002602001820160405280156107b3578160200160208202803683370190505b50905060005b84518110156108555761081a8582815181106107e557634e487b7160e01b600052603260045260246000fd5b602002602001015185838151811061080d57634e487b7160e01b600052603260045260246000fd5b6020026020010151610373565b82828151811061083a57634e487b7160e01b600052603260045260246000fd5b602090810291909101015261084e81613078565b90506107b9565b509392505050565b610865610e5f565b6001600160a01b03166108766109c2565b6001600160a01b03161461089c5760405162461bcd60e51b815260040161039b90612b30565b6108a66000611361565b565b807f0000000000000000000000000000000000000000000000000000000000000000816010546108d89190612ee1565b106108f55760405162461bcd60e51b815260040161039b906129ab565b600f546109039082906113b1565b3410158061093057506109146109c2565b6001600160a01b0316610925610e5f565b6001600160a01b0316145b61094c5760405162461bcd60e51b815260040161039b90612bda565b601254421061096d5760405162461bcd60e51b815260040161039b9061287c565b816011600061097a610e5f565b6001600160a01b03166001600160a01b031681526020019081526020016000205410156109b95760405162461bcd60e51b815260040161039b90612cb3565b61073a826113c4565b6000546001600160a01b031690565b6109d9610e5f565b6001600160a01b03166109ea6109c2565b6001600160a01b031614610a105760405162461bcd60e51b815260040161039b90612b30565b600e546040516370a0823160e01b81526000916001600160a01b0316906370a0823190610a419030906004016125e0565b60206040518083038186803b158015610a5957600080fd5b505afa158015610a6d573d6000803e3d6000fd5b505050506040513d601f19601f82011682018060405250810190610a91919061252c565b600e549091506001600160a01b031663a9059cbb610aad610e5f565b836040518363ffffffff1660e01b8152600401610acb929190612697565b602060405180830381600087803b158015610ae557600080fd5b505af1158015610af9573d6000803e3d6000fd5b505050506040513d601f19601f8201168201806040525081019061073a9190612473565b807f000000000000000000000000000000000000000000000000000000000000000081601054610b4d9190612ee1565b10610b6a5760405162461bcd60e51b815260040161039b906129ab565b600f54610b789082906113b1565b34101580610ba55750610b896109c2565b6001600160a01b0316610b9a610e5f565b6001600160a01b0316145b610bc15760405162461bcd60e51b815260040161039b90612bda565b6012544210156109b95760405162461bcd60e51b815260040161039b90612b65565b816001600160a01b0316610bf5610e5f565b6001600160a01b03161415610c1c5760405162461bcd60e51b815260040161039b90612c6a565b8060026000610c29610e5f565b6001600160a01b03908116825260208083019390935260409182016000908120918716808252919093529120805460ff191692151592909217909155610c6d610e5f565b6001600160a01b03167f17307eab39ab6107e8899845ad3d59bd9653f200f220920489ca2b5937696c3183604051610ca59190612777565b60405180910390a35050565b610cb9610e5f565b6001600160a01b0316610cca6109c2565b6001600160a01b031614610cf05760405162461bcd60e51b815260040161039b90612b30565b600f55565b6001600160a01b03918216600090815260026020908152604080832093909416825291909152205460ff1690565b610d2b610e5f565b6001600160a01b0316610d3c6109c2565b6001600160a01b031614610d625760405162461bcd60e51b815260040161039b90612b30565b6001600160a01b03909116600090815260116020526040902055565b610d86610e5f565b6001600160a01b0316856001600160a01b03161480610dac5750610dac8561030e610e5f565b610dc85760405162461bcd60e51b815260040161039b9061291f565b610509858585858561154b565b610ddd610e5f565b6001600160a01b0316610dee6109c2565b6001600160a01b031614610e145760405162461bcd60e51b815260040161039b90612b30565b6001600160a01b038116610e3a5760405162461bcd60e51b815260040161039b906128d9565b610e4381611361565b50565b6001600160e01b031981166301ffc9a760e01b14919050565b3390565b8151835114610e845760405162461bcd60e51b815260040161039b90612d59565b6001600160a01b038416610eaa5760405162461bcd60e51b815260040161039b90612a4f565b6000610eb4610e5f565b9050610ec481878787878761102f565b60005b8451811015610fc9576000858281518110610ef257634e487b7160e01b600052603260045260246000fd5b602002602001015190506000858381518110610f1e57634e487b7160e01b600052603260045260246000fd5b60209081029190910181015160008481526001835260408082206001600160a01b038e168352909352919091205490915081811015610f6f5760405162461bcd60e51b815260040161039b90612ae6565b60008381526001602090815260408083206001600160a01b038e8116855292528083208585039055908b16825281208054849290610fae908490612ee1565b9250508190555050505080610fc290613078565b9050610ec7565b50846001600160a01b0316866001600160a01b0316826001600160a01b03167f4a39dc06d4c0dbc64b70af90fd698a233a518aa5d07e595d983b8c0526c8f7fb8787604051611019929190612752565b60405180910390a461102f818787878787611683565b505050505050565b606082600060015b6001835161104d919061302c565b821015611094576000611061878785611791565b90508060001914156110735750611094565b8161107d81613078565b925061108c9050816001612ee1565b92505061103f565b806001600160401b038111156110ba57634e487b7160e01b600052604160045260246000fd5b6040519080825280602002602001820160405280156110ed57816020015b60608152602001906001900390816110d85790505b50935060009150600090505b60018351611107919061302c565b82101561126757600061111b878785611791565b905080600019141561112b575082515b6000611137848361302c565b6001600160401b0381111561115c57634e487b7160e01b600052604160045260246000fd5b6040519080825280601f01601f191660200182016040528015611186576020820181803683370190505b509050806000855b84811015611219578781815181106111b657634e487b7160e01b600052603260045260246000fd5b01602001516001600160f81b03191683836111d081613078565b9450815181106111f057634e487b7160e01b600052603260045260246000fd5b60200101906001600160f81b031916908160001a9053508061121181613078565b91505061118e565b50611225846001612ee1565b955081888661123381613078565b97508151811061125357634e487b7160e01b600052603260045260246000fd5b6020026020010181905250505050506110f9565b50505092915050565b6001600160a01b0384166112965760405162461bcd60e51b815260040161039b90612da1565b60006112a0610e5f565b90506112c1816000876112b288611857565b6112bb88611857565b8761102f565b60008481526001602090815260408083206001600160a01b0389168452909152812080548592906112f3908490612ee1565b92505081905550846001600160a01b031660006001600160a01b0316826001600160a01b03167fc3d58168c5ae7397731d063d5bbf3d657854427343f4c083240f7aacaa2d0f62878760405161134a929190612e87565b60405180910390a4610509816000878787876118b0565b600080546001600160a01b038381166001600160a01b0319831681178455604051919092169283917f8be0079c531659141344cd1fd0a4f28419497f9722a3daafe3b4186f6b6457e09190a35050565b60006113bd828461300d565b9392505050565b600081116113e45760405162461bcd60e51b815260040161039b90612de2565b60006113fa600b5430633744199660e01b611981565b905061142e6040518060400160405280600381526020016219d95d60ea1b815250611426600d546119a6565b839190611b1b565b6114826040518060400160405280600b81526020016a7175657279506172616d7360a81b8152506010548460405160200161146a9291906129fd565b60408051601f19818403018152919052839190611b1b565b600a54600c546000916114a2916001600160a01b03909116908490611b3e565b9050604051806080016040528060105481526020018481526020016114c5610e5f565b6001600160a01b0390811682526000602092830181905284815260138352604080822085518155938501516001850155840151600290930180546060909501511515600160a01b0260ff60a01b19949093166001600160a01b031990951694909417929092161790915560108054859290611541908490612ee1565b9091555050505050565b6001600160a01b0384166115715760405162461bcd60e51b815260040161039b90612a4f565b600061157b610e5f565b905061158c8187876112b288611857565b60008481526001602090815260408083206001600160a01b038a168452909152902054838110156115cf5760405162461bcd60e51b815260040161039b90612ae6565b60008581526001602090815260408083206001600160a01b038b811685529252808320878503905590881682528120805486929061160e908490612ee1565b92505081905550856001600160a01b0316876001600160a01b0316836001600160a01b03167fc3d58168c5ae7397731d063d5bbf3d657854427343f4c083240f7aacaa2d0f628888604051611664929190612e87565b60405180910390a461167a8288888888886118b0565b50505050505050565b611695846001600160a01b0316611b5d565b1561102f5760405163bc197c8160e01b81526001600160a01b0385169063bc197c81906116ce90899089908890889088906004016125f4565b602060405180830381600087803b1580156116e857600080fd5b505af1925050508015611718575060408051601f3d908101601f19168201909252611715918101906124f8565b60015b61176157611724613105565b8061172f5750611749565b8060405162461bcd60e51b815260040161039b9190612782565b60405162461bcd60e51b815260040161039b90612795565b6001600160e01b0319811663bc197c8160e01b1461167a5760405162461bcd60e51b815260040161039b906127e9565b8151600090849084906001146117b757634e487b7160e01b600052600160045260246000fd5b835b825181101561184957816000815181106117e357634e487b7160e01b600052603260045260246000fd5b602001015160f81c60f81b6001600160f81b03191683828151811061181857634e487b7160e01b600052603260045260246000fd5b01602001516001600160f81b03191614156118375792506113bd915050565b8061184181613078565b9150506117b9565b506000199695505050505050565b6040805160018082528183019092526060916000919060208083019080368337019050509050828160008151811061189f57634e487b7160e01b600052603260045260246000fd5b602090810291909101015292915050565b6118c2846001600160a01b0316611b5d565b1561102f5760405163f23a6e6160e01b81526001600160a01b0385169063f23a6e61906118fb9089908990889088908890600401612652565b602060405180830381600087803b15801561191557600080fd5b505af1925050508015611945575060408051601f3d908101601f19168201909252611942918101906124f8565b60015b61195157611724613105565b6001600160e01b0319811663f23a6e6160e01b1461167a5760405162461bcd60e51b815260040161039b906127e9565b6119896120bc565b6119916120bc565b61199d81868686611b63565b95945050505050565b606060005b60208160ff161080156119ed5750828160ff16602081106119dc57634e487b7160e01b600052603260045260246000fd5b1a60f81b6001600160f81b03191615155b15611a0457806119fc81613093565b9150506119ab565b60008160ff166001600160401b03811115611a2f57634e487b7160e01b600052604160045260246000fd5b6040519080825280601f01601f191660200182016040528015611a59576020820181803683370190505b509050600091505b60208260ff16108015611aa35750838260ff1660208110611a9257634e487b7160e01b600052603260045260246000fd5b1a60f81b6001600160f81b03191615155b156113bd57838260ff1660208110611acb57634e487b7160e01b600052603260045260246000fd5b1a60f81b818360ff1681518110611af257634e487b7160e01b600052603260045260246000fd5b60200101906001600160f81b031916908160001a90535081611b1381613093565b925050611a61565b6080830151611b2a9083611ba0565b6080830151611b399082611ba0565b505050565b6000611b5584848460016320214ca360e11b611bb7565b949350505050565b3b151590565b611b6b6120bc565b611b7b8560800151610100611d72565b50509183526001600160a01b031660208301526001600160e01b031916604082015290565b611bad8260038351611dca565b611b398282611ea3565b600030600854604051602001611bce9291906125be565b60408051808303601f19018152918152815160209283012060085460608901526000818152600990935281832080546001600160a01b0319166001600160a01b038b16179055905190925082917fb5e6e01e79f91267dc17b4e6314d5d4d03593d2ceee0fbb452b750bd70ea5af991a2600082600080886000015189602001518a604001518b606001518a8d6080015160000151604051602401611c799897969594939291906126b0565b60408051601f198184030181529181526020820180516001600160e01b03166001600160e01b0319909416939093179092526006549151630200057560e51b81529092506001600160a01b0390911690634000aea090611ce1908a9089908690600401612718565b602060405180830381600087803b158015611cfb57600080fd5b505af1158015611d0f573d6000803e3d6000fd5b505050506040513d601f19601f82011682018060405250810190611d339190612473565b611d4f5760405162461bcd60e51b815260040161039b90612968565b600160086000828254611d629190612ee1565b9091555091979650505050505050565b611d7a6120f1565b611d856020836130b3565b15611dad57611d956020836130b3565b611da090602061302c565b611daa9083612ee1565b91505b506020828101829052604080518085526000815290920101905290565b60178111611deb57611de58360e0600585901b168317611ebd565b50611b39565b60ff8111611e1557611e08836018611fe0600586901b1617611ebd565b50611de583826001611ed5565b61ffff8111611e4057611e33836019611fe0600586901b1617611ebd565b50611de583826002611ed5565b63ffffffff8111611e6d57611e6083601a611fe0600586901b1617611ebd565b50611de583826004611ed5565b6001600160401b038111611b3957611e9083601b611fe0600586901b1617611ebd565b50611e9d83826008611ed5565b50505050565b611eab6120f1565b6113bd83846000015151848551611eee565b611ec56120f1565b6113bd8384600001515184611fcb565b611edd6120f1565b611b5584856000015151858561201a565b611ef66120f1565b8251821115611f0457600080fd5b6020850151611f138386612ee1565b1115611f4657611f4685611f3687602001518786611f319190612ee1565b61208e565b611f4190600261300d565b6120a5565b600080865180518760208301019350808887011115611f655787860182525b505050602084015b60208410611fa55780518252611f84602083612ee1565b9150611f91602082612ee1565b9050611f9e60208561302c565b9350611f6d565b51815160001960208690036101000a019081169019919091161790525083949350505050565b611fd36120f1565b83602001518310611ff357611ff38485602001516002611f41919061300d565b835180516020858301018481535080851415612010576001810182525b5093949350505050565b6120226120f1565b60208501516120318584612ee1565b11156120455761204585611f368685612ee1565b6000600161205584610100612f3f565b61205f919061302c565b90508551838682010185831982511617815250805184870111156120835783860181525b509495945050505050565b60008183111561209f5750816103c9565b50919050565b81516120b18383611d72565b50611e9d8382611ea3565b6040805160a0810182526000808252602082018190529181018290526060810191909152608081016120ec6120f1565b905290565b604051806040016040528060608152602001600081525090565b60006001600160401b03831115612124576121246130e9565b612137601f8401601f1916602001612e95565b905082815283838301111561214b57600080fd5b828260208301376000602084830101529392505050565b80356001600160a01b038116811461041257600080fd5b600082601f830112612189578081fd5b8135602061219e61219983612ebe565b612e95565b82815281810190858301838502870184018810156121ba578586fd5b855b858110156121d8578135845292840192908401906001016121bc565b5090979650505050505050565b600082601f8301126121f5578081fd5b6113bd8383356020850161210b565b600060208284031215612215578081fd5b6113bd82612162565b60008060408385031215612230578081fd5b61223983612162565b915061224760208401612162565b90509250929050565b600080600080600060a08688031215612267578081fd5b61227086612162565b945061227e60208701612162565b935060408601356001600160401b0380821115612299578283fd5b6122a589838a01612179565b945060608801359150808211156122ba578283fd5b6122c689838a01612179565b935060808801359150808211156122db578283fd5b506122e8888289016121e5565b9150509295509295909350565b600080600080600060a0868803121561230c578081fd5b61231586612162565b945061232360208701612162565b9350604086013592506060860135915060808601356001600160401b0381111561234b578182fd5b6122e8888289016121e5565b60008060408385031215612369578182fd5b61237283612162565b91506020830135612382816131a9565b809150509250929050565b6000806040838503121561239f578182fd5b6123a883612162565b946020939093013593505050565b600080604083850312156123c8578081fd5b82356001600160401b03808211156123de578283fd5b818501915085601f8301126123f1578283fd5b8135602061240161219983612ebe565b82815281810190858301838502870184018b101561241d578788fd5b8796505b848710156124465761243281612162565b835260019690960195918301918301612421565b509650508601359250508082111561245c578283fd5b5061246985828601612179565b9150509250929050565b600060208284031215612484578081fd5b81516113bd816131a9565b600080604083850312156124a1578182fd5b8235915060208301356001600160401b038111156124bd578182fd5b8301601f810185136124cd578182fd5b6124698582356020840161210b565b6000602082840312156124ed578081fd5b81356113bd816131b7565b600060208284031215612509578081fd5b81516113bd816131b7565b600060208284031215612525578081fd5b5035919050565b60006020828403121561253d578081fd5b5051919050565b6000815180845260208085019450808401835b8381101561208357815187529582019590820190600101612557565b60008151808452815b818110156125985760208185018101518683018201520161257c565b818111156125a95782602083870101525b50601f01601f19169290920160200192915050565b60609290921b6bffffffffffffffffffffffff19168252601482015260340190565b6001600160a01b0391909116815260200190565b6001600160a01b0386811682528516602082015260a06040820181905260009061262090830186612544565b82810360608401526126328186612544565b905082810360808401526126468185612573565b98975050505050505050565b6001600160a01b03868116825285166020820152604081018490526060810183905260a06080820181905260009061268c90830184612573565b979650505050505050565b6001600160a01b03929092168252602082015260400190565b6001600160a01b0389811682526020820189905260408201889052861660608201526001600160e01b03198516608082015260a0810184905260c0810183905261010060e0820181905260009061270983820185612573565b9b9a5050505050505050505050565b600060018060a01b03851682528360208301526060604083015261199d6060830184612573565b6000602082526113bd6020830184612544565b6000604082526127656040830185612544565b828103602084015261199d8185612544565b901515815260200190565b6000602082526113bd6020830184612573565b60208082526034908201527f455243313135353a207472616e7366657220746f206e6f6e20455243313135356040820152732932b1b2b4bb32b91034b6b83632b6b2b73a32b960611b606082015260800190565b60208082526028908201527f455243313135353a204552433131353552656365697665722072656a656374656040820152676420746f6b656e7360c01b606082015260800190565b6020808252602b908201527f455243313135353a2062616c616e636520717565727920666f7220746865207a60408201526a65726f206164647265737360a81b606082015260800190565b6020808252603d908201527f49636f6e733a204561726c79206d696e74696e67207068617365206973206f7660408201527f65722c20706c656173652075736520276d696e742720696e7374656164000000606082015260800190565b60208082526026908201527f4f776e61626c653a206e6577206f776e657220697320746865207a65726f206160408201526564647265737360d01b606082015260800190565b60208082526029908201527f455243313135353a2063616c6c6572206973206e6f74206f776e6572206e6f7260408201526808185c1c1c9bdd995960ba1b606082015260800190565b60208082526023908201527f756e61626c6520746f207472616e73666572416e6443616c6c20746f206f7261604082015262636c6560e81b606082015260800190565b60208082526032908201527f49636f6e733a20546f6b656e7320746f206d696e742065786365656473206d6160408201527178206e756d626572206f6620746f6b656e7360701b606082015260800190565b6080808252600890820181905267746f6b656e49643d60c01b60a0830152602082019390935260c0604082018190528101929092526726616d6f756e743d60c01b60e083015260608201526101000190565b60208082526025908201527f455243313135353a207472616e7366657220746f20746865207a65726f206164604082015264647265737360d81b606082015260800190565b60208082526032908201527f455243313135353a207472616e736665722063616c6c6572206973206e6f74206040820152711bdddb995c881b9bdc88185c1c1c9bdd995960721b606082015260800190565b6020808252602a908201527f455243313135353a20696e73756666696369656e742062616c616e636520666f60408201526939103a3930b739b332b960b11b606082015260800190565b6020808252818101527f4f776e61626c653a2063616c6c6572206973206e6f7420746865206f776e6572604082015260600190565b6020808252604f908201527f49636f6e733a20436f6e7472616374206973207374696c6c20696e206561726c60408201527f79206d696e74696e672070686173652c20706c6561736520757365202765617260608201526e1b1e535a5b9d09c81a5b9cdd195859608a1b608082015260a00190565b60208082526028908201527f49636f6e733a204e6f7420656e6f7567682066756e647320746f206d696e742060408201526718dbdb9d1c9858dd60c21b606082015260800190565b60208082526028908201527f536f75726365206d75737420626520746865206f7261636c65206f6620746865604082015267081c995c5d595cdd60c21b606082015260800190565b60208082526029908201527f455243313135353a2073657474696e6720617070726f76616c20737461747573604082015268103337b91039b2b63360b91b606082015260800190565b6020808252603b908201527f49636f6e733a20596f7520617265206e6f7420617574686f72697a656420746f60408201527f206d696e74207468697320616d6f756e74206f6620746f6b656e730000000000606082015260800190565b60208082526029908201527f455243313135353a206163636f756e747320616e6420696473206c656e677468604082015268040dad2e6dac2e8c6d60bb1b606082015260800190565b60208082526028908201527f455243313135353a2069647320616e6420616d6f756e7473206c656e677468206040820152670dad2e6dac2e8c6d60c31b606082015260800190565b60208082526021908201527f455243313135353a206d696e7420746f20746865207a65726f206164647265736040820152607360f81b606082015260800190565b6020808252602e908201527f49636f6e733a20416d6f756e74206f6620746f6b656e73206d7573742062652060408201526d067726561746572207468656e20360941b606082015260800190565b6020808252602e908201527f49636f6e733a205468697320726571756573742068617320616c72656164792060408201526d1899595b88199d5b199a5b1b195960921b606082015260800190565b90815260200190565b918252602082015260400190565b6040518181016001600160401b0381118282101715612eb657612eb66130e9565b604052919050565b60006001600160401b03821115612ed757612ed76130e9565b5060209081020190565b60008219821115612ef457612ef46130d3565b500190565b80825b6001808611612f0b5750612f36565b818704821115612f1d57612f1d6130d3565b80861615612f2a57918102915b9490941c938002612efc565b94509492505050565b60006113bd6000198484600082612f58575060016113bd565b81612f65575060006113bd565b8160018114612f7b5760028114612f8557612fb2565b60019150506113bd565b60ff841115612f9657612f966130d3565b6001841b915084821115612fac57612fac6130d3565b506113bd565b5060208310610133831016604e8410600b8410161715612fe5575081810a83811115612fe057612fe06130d3565b6113bd565b612ff28484846001612ef9565b808604821115613004576130046130d3565b02949350505050565b6000816000190483118215151615613027576130276130d3565b500290565b60008282101561303e5761303e6130d3565b500390565b60028104600182168061305757607f821691505b6020821081141561209f57634e487b7160e01b600052602260045260246000fd5b600060001982141561308c5761308c6130d3565b5060010190565b600060ff821660ff8114156130aa576130aa6130d3565b60010192915050565b6000826130ce57634e487b7160e01b81526012600452602481fd5b500690565b634e487b7160e01b600052601160045260246000fd5b634e487b7160e01b600052604160045260246000fd5b60e01c90565b600060443d1015613115576104af565b600481823e6308c379a061312982516130ff565b14613133576104af565b6040513d600319016004823e80513d6001600160401b03816024840111818411171561316257505050506104af565b8284019250825191508082111561317c57505050506104af565b503d83016020828401011115613194575050506104af565b601f01601f1916810160200160405291505090565b8015158114610e4357600080fd5b6001600160e01b031981168114610e4357600080fdfea26469706673582212204022b846c914fcb9f7aeaf43a0294a36e8fc32fbc29cab523b5932130a1d79d964736f6c63430008000033",
  "linkReferences": {},
  "deployedLinkReferences": {}
}